{
  "contractName": "simpleNFT",
  "abi": [
    {
      "inputs": [
        {
          "internalType": "string",
          "name": "name",
          "type": "string"
        },
        {
          "internalType": "string",
          "name": "symbol",
          "type": "string"
        }
      ],
      "stateMutability": "nonpayable",
      "type": "constructor"
    },
    {
      "anonymous": false,
      "inputs": [
        {
          "indexed": true,
          "internalType": "address",
          "name": "owner",
          "type": "address"
        },
        {
          "indexed": true,
          "internalType": "address",
          "name": "approved",
          "type": "address"
        },
        {
          "indexed": true,
          "internalType": "uint256",
          "name": "tokenId",
          "type": "uint256"
        }
      ],
      "name": "Approval",
      "type": "event"
    },
    {
      "anonymous": false,
      "inputs": [
        {
          "indexed": true,
          "internalType": "address",
          "name": "owner",
          "type": "address"
        },
        {
          "indexed": true,
          "internalType": "address",
          "name": "operator",
          "type": "address"
        },
        {
          "indexed": false,
          "internalType": "bool",
          "name": "approved",
          "type": "bool"
        }
      ],
      "name": "ApprovalForAll",
      "type": "event"
    },
    {
      "anonymous": false,
      "inputs": [
        {
          "indexed": true,
          "internalType": "address",
          "name": "from",
          "type": "address"
        },
        {
          "indexed": true,
          "internalType": "address",
          "name": "to",
          "type": "address"
        },
        {
          "indexed": true,
          "internalType": "uint256",
          "name": "tokenId",
          "type": "uint256"
        }
      ],
      "name": "Transfer",
      "type": "event"
    },
    {
      "inputs": [
        {
          "internalType": "address",
          "name": "to",
          "type": "address"
        },
        {
          "internalType": "uint256",
          "name": "tokenId",
          "type": "uint256"
        }
      ],
      "name": "approve",
      "outputs": [],
      "stateMutability": "nonpayable",
      "type": "function"
    },
    {
      "inputs": [
        {
          "internalType": "address",
          "name": "owner",
          "type": "address"
        }
      ],
      "name": "balanceOf",
      "outputs": [
        {
          "internalType": "uint256",
          "name": "",
          "type": "uint256"
        }
      ],
      "stateMutability": "view",
      "type": "function"
    },
    {
      "inputs": [
        {
          "internalType": "uint256",
          "name": "tokenId",
          "type": "uint256"
        }
      ],
      "name": "getApproved",
      "outputs": [
        {
          "internalType": "address",
          "name": "",
          "type": "address"
        }
      ],
      "stateMutability": "view",
      "type": "function"
    },
    {
      "inputs": [
        {
          "internalType": "address",
          "name": "owner",
          "type": "address"
        },
        {
          "internalType": "address",
          "name": "operator",
          "type": "address"
        }
      ],
      "name": "isApprovedForAll",
      "outputs": [
        {
          "internalType": "bool",
          "name": "",
          "type": "bool"
        }
      ],
      "stateMutability": "view",
      "type": "function"
    },
    {
      "inputs": [],
      "name": "name",
      "outputs": [
        {
          "internalType": "string",
          "name": "",
          "type": "string"
        }
      ],
      "stateMutability": "view",
      "type": "function"
    },
    {
      "inputs": [
        {
          "internalType": "uint256",
          "name": "tokenId",
          "type": "uint256"
        }
      ],
      "name": "ownerOf",
      "outputs": [
        {
          "internalType": "address",
          "name": "",
          "type": "address"
        }
      ],
      "stateMutability": "view",
      "type": "function"
    },
    {
      "inputs": [
        {
          "internalType": "address",
          "name": "from",
          "type": "address"
        },
        {
          "internalType": "address",
          "name": "to",
          "type": "address"
        },
        {
          "internalType": "uint256",
          "name": "tokenId",
          "type": "uint256"
        }
      ],
      "name": "safeTransferFrom",
      "outputs": [],
      "stateMutability": "nonpayable",
      "type": "function"
    },
    {
      "inputs": [
        {
          "internalType": "address",
          "name": "from",
          "type": "address"
        },
        {
          "internalType": "address",
          "name": "to",
          "type": "address"
        },
        {
          "internalType": "uint256",
          "name": "tokenId",
          "type": "uint256"
        },
        {
          "internalType": "bytes",
          "name": "data",
          "type": "bytes"
        }
      ],
      "name": "safeTransferFrom",
      "outputs": [],
      "stateMutability": "nonpayable",
      "type": "function"
    },
    {
      "inputs": [
        {
          "internalType": "address",
          "name": "operator",
          "type": "address"
        },
        {
          "internalType": "bool",
          "name": "approved",
          "type": "bool"
        }
      ],
      "name": "setApprovalForAll",
      "outputs": [],
      "stateMutability": "nonpayable",
      "type": "function"
    },
    {
      "inputs": [
        {
          "internalType": "bytes4",
          "name": "interfaceId",
          "type": "bytes4"
        }
      ],
      "name": "supportsInterface",
      "outputs": [
        {
          "internalType": "bool",
          "name": "",
          "type": "bool"
        }
      ],
      "stateMutability": "view",
      "type": "function"
    },
    {
      "inputs": [],
      "name": "symbol",
      "outputs": [
        {
          "internalType": "string",
          "name": "",
          "type": "string"
        }
      ],
      "stateMutability": "view",
      "type": "function"
    },
    {
      "inputs": [
        {
          "internalType": "uint256",
          "name": "",
          "type": "uint256"
        }
      ],
      "name": "tokenName",
      "outputs": [
        {
          "internalType": "string",
          "name": "",
          "type": "string"
        }
      ],
      "stateMutability": "view",
      "type": "function"
    },
    {
      "inputs": [
        {
          "internalType": "uint256",
          "name": "tokenId",
          "type": "uint256"
        }
      ],
      "name": "tokenURI",
      "outputs": [
        {
          "internalType": "string",
          "name": "",
          "type": "string"
        }
      ],
      "stateMutability": "view",
      "type": "function"
    },
    {
      "inputs": [
        {
          "internalType": "address",
          "name": "from",
          "type": "address"
        },
        {
          "internalType": "address",
          "name": "to",
          "type": "address"
        },
        {
          "internalType": "uint256",
          "name": "tokenId",
          "type": "uint256"
        }
      ],
      "name": "transferFrom",
      "outputs": [],
      "stateMutability": "nonpayable",
      "type": "function"
    },
    {
      "inputs": [
        {
          "internalType": "string",
          "name": "name",
          "type": "string"
        },
        {
          "internalType": "string",
          "name": "tokenURI",
          "type": "string"
        }
      ],
      "name": "createKey",
      "outputs": [
        {
          "internalType": "uint256",
          "name": "",
          "type": "uint256"
        }
      ],
      "stateMutability": "nonpayable",
      "type": "function"
    },
    {
      "inputs": [
        {
          "internalType": "uint256",
          "name": "tokenId",
          "type": "uint256"
        }
      ],
      "name": "getTokenName",
      "outputs": [
        {
          "internalType": "string",
          "name": "",
          "type": "string"
        }
      ],
      "stateMutability": "view",
      "type": "function"
    }
  ],
  "bytecode": "0x60806040523480156200001157600080fd5b5060405162002ec038038062002ec08339818101604052810190620000379190620002c2565b818181600090805190602001906200005192919062000075565b5080600190805190602001906200006a92919062000075565b5050505050620003ab565b828054620000839062000376565b90600052602060002090601f016020900481019282620000a75760008555620000f3565b82601f10620000c257805160ff1916838001178555620000f3565b82800160010185558215620000f3579182015b82811115620000f2578251825591602001919060010190620000d5565b5b50905062000102919062000106565b5090565b5b808211156200012157600081600090555060010162000107565b5090565b6000604051905090565b600080fd5b600080fd5b600080fd5b600080fd5b6000601f19601f8301169050919050565b7f4e487b7100000000000000000000000000000000000000000000000000000000600052604160045260246000fd5b6200018e8262000143565b810181811067ffffffffffffffff82111715620001b057620001af62000154565b5b80604052505050565b6000620001c562000125565b9050620001d3828262000183565b919050565b600067ffffffffffffffff821115620001f657620001f562000154565b5b620002018262000143565b9050602081019050919050565b60005b838110156200022e57808201518184015260208101905062000211565b838111156200023e576000848401525b50505050565b60006200025b6200025584620001d8565b620001b9565b9050828152602081018484840111156200027a57620002796200013e565b5b620002878482856200020e565b509392505050565b600082601f830112620002a757620002a662000139565b5b8151620002b984826020860162000244565b91505092915050565b60008060408385031215620002dc57620002db6200012f565b5b600083015167ffffffffffffffff811115620002fd57620002fc62000134565b5b6200030b858286016200028f565b925050602083015167ffffffffffffffff8111156200032f576200032e62000134565b5b6200033d858286016200028f565b9150509250929050565b7f4e487b7100000000000000000000000000000000000000000000000000000000600052602260045260246000fd5b600060028204905060018216806200038f57607f821691505b602082108103620003a557620003a462000347565b5b50919050565b612b0580620003bb6000396000f3fe608060405234801561001057600080fd5b50600436106101005760003560e01c806395d89b4111610097578063dbe16c0711610066578063dbe16c07146102bd578063e725f877146102ed578063e985e9c51461031d578063fdf2fcbb1461034d57610100565b806395d89b4114610237578063a22cb46514610255578063b88d4fde14610271578063c87b56dd1461028d57610100565b806323b872dd116100d357806323b872dd1461019f57806342842e0e146101bb5780636352211e146101d757806370a082311461020757610100565b806301ffc9a71461010557806306fdde0314610135578063081812fc14610153578063095ea7b314610183575b600080fd5b61011f600480360381019061011a9190611abb565b61037d565b60405161012c9190611b03565b60405180910390f35b61013d61045f565b60405161014a9190611bb7565b60405180910390f35b61016d60048036038101906101689190611c0f565b6104f1565b60405161017a9190611c7d565b60405180910390f35b61019d60048036038101906101989190611cc4565b610537565b005b6101b960048036038101906101b49190611d04565b61064e565b005b6101d560048036038101906101d09190611d04565b6106ae565b005b6101f160048036038101906101ec9190611c0f565b6106ce565b6040516101fe9190611c7d565b60405180910390f35b610221600480360381019061021c9190611d57565b61077f565b60405161022e9190611d93565b60405180910390f35b61023f610836565b60405161024c9190611bb7565b60405180910390f35b61026f600480360381019061026a9190611dda565b6108c8565b005b61028b60048036038101906102869190611f4f565b6108de565b005b6102a760048036038101906102a29190611c0f565b610940565b6040516102b49190611bb7565b60405180910390f35b6102d760048036038101906102d29190611c0f565b610a52565b6040516102e49190611bb7565b60405180910390f35b61030760048036038101906103029190611c0f565b610af7565b6040516103149190611bb7565b60405180910390f35b61033760048036038101906103329190611fd2565b610b97565b6040516103449190611b03565b60405180910390f35b610367600480360381019061036291906120b3565b610c2b565b6040516103749190611d93565b60405180910390f35b60007f80ac58cd000000000000000000000000000000000000000000000000000000007bffffffffffffffffffffffffffffffffffffffffffffffffffffffff1916827bffffffffffffffffffffffffffffffffffffffffffffffffffffffff1916148061044857507f5b5e139f000000000000000000000000000000000000000000000000000000007bffffffffffffffffffffffffffffffffffffffffffffffffffffffff1916827bffffffffffffffffffffffffffffffffffffffffffffffffffffffff1916145b80610458575061045782610c8a565b5b9050919050565b60606000805461046e9061215a565b80601f016020809104026020016040519081016040528092919081815260200182805461049a9061215a565b80156104e75780601f106104bc576101008083540402835291602001916104e7565b820191906000526020600020905b8154815290600101906020018083116104ca57829003601f168201915b5050505050905090565b60006104fc82610cf4565b6004600083815260200190815260200160002060009054906101000a900473ffffffffffffffffffffffffffffffffffffffff169050919050565b6000610542826106ce565b90508073ffffffffffffffffffffffffffffffffffffffff168373ffffffffffffffffffffffffffffffffffffffff16036105b2576040517f08c379a00000000000000000000000000000000000000000000000000000000081526004016105a9906121fd565b60405180910390fd5b8073ffffffffffffffffffffffffffffffffffffffff166105d1610d3f565b73ffffffffffffffffffffffffffffffffffffffff16148061060057506105ff816105fa610d3f565b610b97565b5b61063f576040517f08c379a00000000000000000000000000000000000000000000000000000000081526004016106369061228f565b60405180910390fd5b6106498383610d47565b505050565b61065f610659610d3f565b82610e00565b61069e576040517f08c379a000000000000000000000000000000000000000000000000000000000815260040161069590612321565b60405180910390fd5b6106a9838383610e95565b505050565b6106c9838383604051806020016040528060008152506108de565b505050565b6000806002600084815260200190815260200160002060009054906101000a900473ffffffffffffffffffffffffffffffffffffffff169050600073ffffffffffffffffffffffffffffffffffffffff168173ffffffffffffffffffffffffffffffffffffffff1603610776576040517f08c379a000000000000000000000000000000000000000000000000000000000815260040161076d9061238d565b60405180910390fd5b80915050919050565b60008073ffffffffffffffffffffffffffffffffffffffff168273ffffffffffffffffffffffffffffffffffffffff16036107ef576040517f08c379a00000000000000000000000000000000000000000000000000000000081526004016107e69061241f565b60405180910390fd5b600360008373ffffffffffffffffffffffffffffffffffffffff1673ffffffffffffffffffffffffffffffffffffffff168152602001908152602001600020549050919050565b6060600180546108459061215a565b80601f01602080910402602001604051908101604052809291908181526020018280546108719061215a565b80156108be5780601f10610893576101008083540402835291602001916108be565b820191906000526020600020905b8154815290600101906020018083116108a157829003601f168201915b5050505050905090565b6108da6108d3610d3f565b83836110fb565b5050565b6108ef6108e9610d3f565b83610e00565b61092e576040517f08c379a000000000000000000000000000000000000000000000000000000000815260040161092590612321565b60405180910390fd5b61093a84848484611267565b50505050565b606061094b82610cf4565b600060066000848152602001908152602001600020805461096b9061215a565b80601f01602080910402602001604051908101604052809291908181526020018280546109979061215a565b80156109e45780601f106109b9576101008083540402835291602001916109e4565b820191906000526020600020905b8154815290600101906020018083116109c757829003601f168201915b5050505050905060006109f56112c3565b90506000815103610a0a578192505050610a4d565b600082511115610a3f578082604051602001610a2792919061247b565b60405160208183030381529060405292505050610a4d565b610a48846112da565b925050505b919050565b6060600860008381526020019081526020016000208054610a729061215a565b80601f0160208091040260200160405190810160405280929190818152602001828054610a9e9061215a565b8015610aeb5780601f10610ac057610100808354040283529160200191610aeb565b820191906000526020600020905b815481529060010190602001808311610ace57829003601f168201915b50505050509050919050565b60086020528060005260406000206000915090508054610b169061215a565b80601f0160208091040260200160405190810160405280929190818152602001828054610b429061215a565b8015610b8f5780601f10610b6457610100808354040283529160200191610b8f565b820191906000526020600020905b815481529060010190602001808311610b7257829003601f168201915b505050505081565b6000600560008473ffffffffffffffffffffffffffffffffffffffff1673ffffffffffffffffffffffffffffffffffffffff16815260200190815260200160002060008373ffffffffffffffffffffffffffffffffffffffff1673ffffffffffffffffffffffffffffffffffffffff16815260200190815260200160002060009054906101000a900460ff16905092915050565b600080610c386007611342565b9050610c443382611350565b610c4e818461136e565b83600860008381526020019081526020016000209080519060200190610c759291906119ac565b50610c8060076113e2565b8091505092915050565b60007f01ffc9a7000000000000000000000000000000000000000000000000000000007bffffffffffffffffffffffffffffffffffffffffffffffffffffffff1916827bffffffffffffffffffffffffffffffffffffffffffffffffffffffff1916149050919050565b610cfd816113f8565b610d3c576040517f08c379a0000000000000000000000000000000000000000000000000000000008152600401610d339061238d565b60405180910390fd5b50565b600033905090565b816004600083815260200190815260200160002060006101000a81548173ffffffffffffffffffffffffffffffffffffffff021916908373ffffffffffffffffffffffffffffffffffffffff160217905550808273ffffffffffffffffffffffffffffffffffffffff16610dba836106ce565b73ffffffffffffffffffffffffffffffffffffffff167f8c5be1e5ebec7d5bd14f71427d1e84f3dd0314c0f7b2291e5b200ac8c7c3b92560405160405180910390a45050565b600080610e0c836106ce565b90508073ffffffffffffffffffffffffffffffffffffffff168473ffffffffffffffffffffffffffffffffffffffff161480610e4e5750610e4d8185610b97565b5b80610e8c57508373ffffffffffffffffffffffffffffffffffffffff16610e74846104f1565b73ffffffffffffffffffffffffffffffffffffffff16145b91505092915050565b8273ffffffffffffffffffffffffffffffffffffffff16610eb5826106ce565b73ffffffffffffffffffffffffffffffffffffffff1614610f0b576040517f08c379a0000000000000000000000000000000000000000000000000000000008152600401610f0290612511565b60405180910390fd5b600073ffffffffffffffffffffffffffffffffffffffff168273ffffffffffffffffffffffffffffffffffffffff1603610f7a576040517f08c379a0000000000000000000000000000000000000000000000000000000008152600401610f71906125a3565b60405180910390fd5b610f85838383611464565b610f90600082610d47565b6001600360008573ffffffffffffffffffffffffffffffffffffffff1673ffffffffffffffffffffffffffffffffffffffff1681526020019081526020016000206000828254610fe091906125f2565b925050819055506001600360008473ffffffffffffffffffffffffffffffffffffffff1673ffffffffffffffffffffffffffffffffffffffff16815260200190815260200160002060008282546110379190612626565b92505081905550816002600083815260200190815260200160002060006101000a81548173ffffffffffffffffffffffffffffffffffffffff021916908373ffffffffffffffffffffffffffffffffffffffff160217905550808273ffffffffffffffffffffffffffffffffffffffff168473ffffffffffffffffffffffffffffffffffffffff167fddf252ad1be2c89b69c2b068fc378daa952ba7f163c4a11628f55a4df523b3ef60405160405180910390a46110f6838383611469565b505050565b8173ffffffffffffffffffffffffffffffffffffffff168373ffffffffffffffffffffffffffffffffffffffff1603611169576040517f08c379a0000000000000000000000000000000000000000000000000000000008152600401611160906126c8565b60405180910390fd5b80600560008573ffffffffffffffffffffffffffffffffffffffff1673ffffffffffffffffffffffffffffffffffffffff16815260200190815260200160002060008473ffffffffffffffffffffffffffffffffffffffff1673ffffffffffffffffffffffffffffffffffffffff16815260200190815260200160002060006101000a81548160ff0219169083151502179055508173ffffffffffffffffffffffffffffffffffffffff168373ffffffffffffffffffffffffffffffffffffffff167f17307eab39ab6107e8899845ad3d59bd9653f200f220920489ca2b5937696c318360405161125a9190611b03565b60405180910390a3505050565b611272848484610e95565b61127e8484848461146e565b6112bd576040517f08c379a00000000000000000000000000000000000000000000000000000000081526004016112b49061275a565b60405180910390fd5b50505050565b606060405180602001604052806000815250905090565b60606112e582610cf4565b60006112ef6112c3565b9050600081511161130f576040518060200160405280600081525061133a565b80611319846115f5565b60405160200161132a92919061247b565b6040516020818303038152906040525b915050919050565b600081600001549050919050565b61136a828260405180602001604052806000815250611755565b5050565b611377826113f8565b6113b6576040517f08c379a00000000000000000000000000000000000000000000000000000000081526004016113ad906127ec565b60405180910390fd5b806006600084815260200190815260200160002090805190602001906113dd9291906119ac565b505050565b6001816000016000828254019250508190555050565b60008073ffffffffffffffffffffffffffffffffffffffff166002600084815260200190815260200160002060009054906101000a900473ffffffffffffffffffffffffffffffffffffffff1673ffffffffffffffffffffffffffffffffffffffff1614159050919050565b505050565b505050565b600061148f8473ffffffffffffffffffffffffffffffffffffffff166117b0565b156115e8578373ffffffffffffffffffffffffffffffffffffffff1663150b7a026114b8610d3f565b8786866040518563ffffffff1660e01b81526004016114da9493929190612861565b6020604051808303816000875af192505050801561151657506040513d601f19601f8201168201806040525081019061151391906128c2565b60015b611598573d8060008114611546576040519150601f19603f3d011682016040523d82523d6000602084013e61154b565b606091505b506000815103611590576040517f08c379a00000000000000000000000000000000000000000000000000000000081526004016115879061275a565b60405180910390fd5b805181602001fd5b63150b7a0260e01b7bffffffffffffffffffffffffffffffffffffffffffffffffffffffff1916817bffffffffffffffffffffffffffffffffffffffffffffffffffffffff1916149150506115ed565b600190505b949350505050565b60606000820361163c576040518060400160405280600181526020017f30000000000000000000000000000000000000000000000000000000000000008152509050611750565b600082905060005b6000821461166e578080611657906128ef565b915050600a826116679190612966565b9150611644565b60008167ffffffffffffffff81111561168a57611689611e24565b5b6040519080825280601f01601f1916602001820160405280156116bc5781602001600182028036833780820191505090505b5090505b60008514611749576001826116d591906125f2565b9150600a856116e49190612997565b60306116f09190612626565b60f81b818381518110611706576117056129c8565b5b60200101907effffffffffffffffffffffffffffffffffffffffffffffffffffffffffffff1916908160001a905350600a856117429190612966565b94506116c0565b8093505050505b919050565b61175f83836117d3565b61176c600084848461146e565b6117ab576040517f08c379a00000000000000000000000000000000000000000000000000000000081526004016117a29061275a565b60405180910390fd5b505050565b6000808273ffffffffffffffffffffffffffffffffffffffff163b119050919050565b600073ffffffffffffffffffffffffffffffffffffffff168273ffffffffffffffffffffffffffffffffffffffff1603611842576040517f08c379a000000000000000000000000000000000000000000000000000000000815260040161183990612a43565b60405180910390fd5b61184b816113f8565b1561188b576040517f08c379a000000000000000000000000000000000000000000000000000000000815260040161188290612aaf565b60405180910390fd5b61189760008383611464565b6001600360008473ffffffffffffffffffffffffffffffffffffffff1673ffffffffffffffffffffffffffffffffffffffff16815260200190815260200160002060008282546118e79190612626565b92505081905550816002600083815260200190815260200160002060006101000a81548173ffffffffffffffffffffffffffffffffffffffff021916908373ffffffffffffffffffffffffffffffffffffffff160217905550808273ffffffffffffffffffffffffffffffffffffffff16600073ffffffffffffffffffffffffffffffffffffffff167fddf252ad1be2c89b69c2b068fc378daa952ba7f163c4a11628f55a4df523b3ef60405160405180910390a46119a860008383611469565b5050565b8280546119b89061215a565b90600052602060002090601f0160209004810192826119da5760008555611a21565b82601f106119f357805160ff1916838001178555611a21565b82800160010185558215611a21579182015b82811115611a20578251825591602001919060010190611a05565b5b509050611a2e9190611a32565b5090565b5b80821115611a4b576000816000905550600101611a33565b5090565b6000604051905090565b600080fd5b600080fd5b60007fffffffff0000000000000000000000000000000000000000000000000000000082169050919050565b611a9881611a63565b8114611aa357600080fd5b50565b600081359050611ab581611a8f565b92915050565b600060208284031215611ad157611ad0611a59565b5b6000611adf84828501611aa6565b91505092915050565b60008115159050919050565b611afd81611ae8565b82525050565b6000602082019050611b186000830184611af4565b92915050565b600081519050919050565b600082825260208201905092915050565b60005b83811015611b58578082015181840152602081019050611b3d565b83811115611b67576000848401525b50505050565b6000601f19601f8301169050919050565b6000611b8982611b1e565b611b938185611b29565b9350611ba3818560208601611b3a565b611bac81611b6d565b840191505092915050565b60006020820190508181036000830152611bd18184611b7e565b905092915050565b6000819050919050565b611bec81611bd9565b8114611bf757600080fd5b50565b600081359050611c0981611be3565b92915050565b600060208284031215611c2557611c24611a59565b5b6000611c3384828501611bfa565b91505092915050565b600073ffffffffffffffffffffffffffffffffffffffff82169050919050565b6000611c6782611c3c565b9050919050565b611c7781611c5c565b82525050565b6000602082019050611c926000830184611c6e565b92915050565b611ca181611c5c565b8114611cac57600080fd5b50565b600081359050611cbe81611c98565b92915050565b60008060408385031215611cdb57611cda611a59565b5b6000611ce985828601611caf565b9250506020611cfa85828601611bfa565b9150509250929050565b600080600060608486031215611d1d57611d1c611a59565b5b6000611d2b86828701611caf565b9350506020611d3c86828701611caf565b9250506040611d4d86828701611bfa565b9150509250925092565b600060208284031215611d6d57611d6c611a59565b5b6000611d7b84828501611caf565b91505092915050565b611d8d81611bd9565b82525050565b6000602082019050611da86000830184611d84565b92915050565b611db781611ae8565b8114611dc257600080fd5b50565b600081359050611dd481611dae565b92915050565b60008060408385031215611df157611df0611a59565b5b6000611dff85828601611caf565b9250506020611e1085828601611dc5565b9150509250929050565b600080fd5b600080fd5b7f4e487b7100000000000000000000000000000000000000000000000000000000600052604160045260246000fd5b611e5c82611b6d565b810181811067ffffffffffffffff82111715611e7b57611e7a611e24565b5b80604052505050565b6000611e8e611a4f565b9050611e9a8282611e53565b919050565b600067ffffffffffffffff821115611eba57611eb9611e24565b5b611ec382611b6d565b9050602081019050919050565b82818337600083830152505050565b6000611ef2611eed84611e9f565b611e84565b905082815260208101848484011115611f0e57611f0d611e1f565b5b611f19848285611ed0565b509392505050565b600082601f830112611f3657611f35611e1a565b5b8135611f46848260208601611edf565b91505092915050565b60008060008060808587031215611f6957611f68611a59565b5b6000611f7787828801611caf565b9450506020611f8887828801611caf565b9350506040611f9987828801611bfa565b925050606085013567ffffffffffffffff811115611fba57611fb9611a5e565b5b611fc687828801611f21565b91505092959194509250565b60008060408385031215611fe957611fe8611a59565b5b6000611ff785828601611caf565b925050602061200885828601611caf565b9150509250929050565b600067ffffffffffffffff82111561202d5761202c611e24565b5b61203682611b6d565b9050602081019050919050565b600061205661205184612012565b611e84565b90508281526020810184848401111561207257612071611e1f565b5b61207d848285611ed0565b509392505050565b600082601f83011261209a57612099611e1a565b5b81356120aa848260208601612043565b91505092915050565b600080604083850312156120ca576120c9611a59565b5b600083013567ffffffffffffffff8111156120e8576120e7611a5e565b5b6120f485828601612085565b925050602083013567ffffffffffffffff81111561211557612114611a5e565b5b61212185828601612085565b9150509250929050565b7f4e487b7100000000000000000000000000000000000000000000000000000000600052602260045260246000fd5b6000600282049050600182168061217257607f821691505b6020821081036121855761218461212b565b5b50919050565b7f4552433732313a20617070726f76616c20746f2063757272656e74206f776e6560008201527f7200000000000000000000000000000000000000000000000000000000000000602082015250565b60006121e7602183611b29565b91506121f28261218b565b604082019050919050565b60006020820190508181036000830152612216816121da565b9050919050565b7f4552433732313a20617070726f76652063616c6c6572206973206e6f7420746f60008201527f6b656e206f776e6572206e6f7220617070726f76656420666f7220616c6c0000602082015250565b6000612279603e83611b29565b91506122848261221d565b604082019050919050565b600060208201905081810360008301526122a88161226c565b9050919050565b7f4552433732313a2063616c6c6572206973206e6f7420746f6b656e206f776e6560008201527f72206e6f7220617070726f766564000000000000000000000000000000000000602082015250565b600061230b602e83611b29565b9150612316826122af565b604082019050919050565b6000602082019050818103600083015261233a816122fe565b9050919050565b7f4552433732313a20696e76616c696420746f6b656e2049440000000000000000600082015250565b6000612377601883611b29565b915061238282612341565b602082019050919050565b600060208201905081810360008301526123a68161236a565b9050919050565b7f4552433732313a2061646472657373207a65726f206973206e6f74206120766160008201527f6c6964206f776e65720000000000000000000000000000000000000000000000602082015250565b6000612409602983611b29565b9150612414826123ad565b604082019050919050565b60006020820190508181036000830152612438816123fc565b9050919050565b600081905092915050565b600061245582611b1e565b61245f818561243f565b935061246f818560208601611b3a565b80840191505092915050565b6000612487828561244a565b9150612493828461244a565b91508190509392505050565b7f4552433732313a207472616e736665722066726f6d20696e636f72726563742060008201527f6f776e6572000000000000000000000000000000000000000000000000000000602082015250565b60006124fb602583611b29565b91506125068261249f565b604082019050919050565b6000602082019050818103600083015261252a816124ee565b9050919050565b7f4552433732313a207472616e7366657220746f20746865207a65726f2061646460008201527f7265737300000000000000000000000000000000000000000000000000000000602082015250565b600061258d602483611b29565b915061259882612531565b604082019050919050565b600060208201905081810360008301526125bc81612580565b9050919050565b7f4e487b7100000000000000000000000000000000000000000000000000000000600052601160045260246000fd5b60006125fd82611bd9565b915061260883611bd9565b92508282101561261b5761261a6125c3565b5b828203905092915050565b600061263182611bd9565b915061263c83611bd9565b9250827fffffffffffffffffffffffffffffffffffffffffffffffffffffffffffffffff03821115612671576126706125c3565b5b828201905092915050565b7f4552433732313a20617070726f766520746f2063616c6c657200000000000000600082015250565b60006126b2601983611b29565b91506126bd8261267c565b602082019050919050565b600060208201905081810360008301526126e1816126a5565b9050919050565b7f4552433732313a207472616e7366657220746f206e6f6e20455243373231526560008201527f63656976657220696d706c656d656e7465720000000000000000000000000000602082015250565b6000612744603283611b29565b915061274f826126e8565b604082019050919050565b6000602082019050818103600083015261277381612737565b9050919050565b7f45524337323155524953746f726167653a2055524920736574206f66206e6f6e60008201527f6578697374656e7420746f6b656e000000000000000000000000000000000000602082015250565b60006127d6602e83611b29565b91506127e18261277a565b604082019050919050565b60006020820190508181036000830152612805816127c9565b9050919050565b600081519050919050565b600082825260208201905092915050565b60006128338261280c565b61283d8185612817565b935061284d818560208601611b3a565b61285681611b6d565b840191505092915050565b60006080820190506128766000830187611c6e565b6128836020830186611c6e565b6128906040830185611d84565b81810360608301526128a28184612828565b905095945050505050565b6000815190506128bc81611a8f565b92915050565b6000602082840312156128d8576128d7611a59565b5b60006128e6848285016128ad565b91505092915050565b60006128fa82611bd9565b91507fffffffffffffffffffffffffffffffffffffffffffffffffffffffffffffffff820361292c5761292b6125c3565b5b600182019050919050565b7f4e487b7100000000000000000000000000000000000000000000000000000000600052601260045260246000fd5b600061297182611bd9565b915061297c83611bd9565b92508261298c5761298b612937565b5b828204905092915050565b60006129a282611bd9565b91506129ad83611bd9565b9250826129bd576129bc612937565b5b828206905092915050565b7f4e487b7100000000000000000000000000000000000000000000000000000000600052603260045260246000fd5b7f4552433732313a206d696e7420746f20746865207a65726f2061646472657373600082015250565b6000612a2d602083611b29565b9150612a38826129f7565b602082019050919050565b60006020820190508181036000830152612a5c81612a20565b9050919050565b7f4552433732313a20746f6b656e20616c7265616479206d696e74656400000000600082015250565b6000612a99601c83611b29565b9150612aa482612a63565b602082019050919050565b60006020820190508181036000830152612ac881612a8c565b905091905056fea264697066735822122065ef9e3aa3b493ba7fae4e0bfb2995a7fd541194a20b882c69eb73ef389eec7d64736f6c634300080d0033",
  "immutableReferences": {},
  "source": "// SPDX-License-Identifier: MIT\npragma solidity >=0.4.22 <0.9.0;\n\nimport \"@openzeppelin/contracts/token/ERC721/extensions/ERC721URIStorage.sol\";\nimport \"@openzeppelin/contracts/utils/Counters.sol\";\n\ncontract simpleNFT is ERC721URIStorage {\n  using Counters for Counters.Counter;\n    Counters.Counter private _tokenIds;\n  mapping(uint => string) public tokenName;\n\n    constructor(string memory name, string memory symbol) \n        ERC721(name, symbol)\n    {}\n\n    function createKey(string memory name, string memory tokenURI)\n        public\n        returns (uint256)\n    {\n        uint256 newTokenId = _tokenIds.current();\n        _safeMint(msg.sender, newTokenId);\n        _setTokenURI(newTokenId, tokenURI);\n\n        tokenName[newTokenId] = name;\n        _tokenIds.increment();\n        return newTokenId;\n    }\n\n    function getTokenName(uint256 tokenId) external view returns (string memory) {\n        return tokenName[tokenId];\n    }\n}\n",
  "sourcePath": "/home/shutoylab/chikenLab/Contracts/simpleNFT/contracts/simpleNFT.sol",
  "compiler": {
    "name": "solc",
    "version": "0.8.13+commit.abaa5c0e.Emscripten.clang"
  },
  "schemaVersion": "3.4.7",
  "updatedAt": "2022-10-18T13:48:00.151Z",
  "devdoc": {
    "kind": "dev",
    "methods": {
      "approve(address,uint256)": {
        "details": "See {IERC721-approve}."
      },
      "balanceOf(address)": {
        "details": "See {IERC721-balanceOf}."
      },
      "getApproved(uint256)": {
        "details": "See {IERC721-getApproved}."
      },
      "isApprovedForAll(address,address)": {
        "details": "See {IERC721-isApprovedForAll}."
      },
      "name()": {
        "details": "See {IERC721Metadata-name}."
      },
      "ownerOf(uint256)": {
        "details": "See {IERC721-ownerOf}."
      },
      "safeTransferFrom(address,address,uint256)": {
        "details": "See {IERC721-safeTransferFrom}."
      },
      "safeTransferFrom(address,address,uint256,bytes)": {
        "details": "See {IERC721-safeTransferFrom}."
      },
      "setApprovalForAll(address,bool)": {
        "details": "See {IERC721-setApprovalForAll}."
      },
      "supportsInterface(bytes4)": {
        "details": "See {IERC165-supportsInterface}."
      },
      "symbol()": {
        "details": "See {IERC721Metadata-symbol}."
      },
      "tokenURI(uint256)": {
        "details": "See {IERC721Metadata-tokenURI}."
      },
      "transferFrom(address,address,uint256)": {
        "details": "See {IERC721-transferFrom}."
      }
    },
    "version": 1
  },
  "userdoc": {
    "kind": "user",
    "methods": {},
    "version": 1
  }
}